:020000040000FA
:1000000018530010710000008D000000390200003C
:100010009300000095000000970000000000000021
:100020000000000000000000000000009900000037
:1000300099000000000000009900000099000000F5
:10004000990000009900000099000000990000004C
:10005000990000009900000099000000990000003C
:100060009900000049D70000A1D6000061DD000022
:100070004EF68850CEF20000016841F47001016034
:10008000BFF34F8FBFF36F8F04480047FEE7FEE7D3
:10009000FEE7FEE7FEE7FEE7FEE70000A100000046
:1000A00000F002F800F0B8F80AA090E8000C8244D2
:1000B0008344AAF10107DA4501D100F0ADF8AFF2AF
:1000C000090EBAE80F0013F0010F18BFFB1A43F036
:1000D00001031847080A0100280A010010F8013B33
:1000E0000A4413F0030408BF10F8014B1D1108BFA8
:1000F00010F8015B641E05D010F8016B641E01F856
:10010000016BF9D1002D15D010F8014B03F00C0351
:100110000C2BA1EB04040ABF10F8013BA4EB8314E1
:10012000A4EB032405F1010314F8016B5B1E01F835
:10013000016BF9D5914238BF10F8013BD1D370471C
:100140000023002400250026103A28BF78C1FBD8E0
:10015000520728BF30C148BF0B6070476E2900F0BE
:100160006B82702900F0AD8366290FF07D876529C9
:100170000FF07A8767290FF0778761290FF076876C
:1001800003681B0A28BF41F08001692900F018822A
:10019000642900F01582752900F012826F2900F0A1
:1001A0003B83782900F07983E92900F0D582E4299E
:1001B00000F0D282F52900F0CF82EF2900F03883D9
:1001C000F82900F078830368DB0928BF41F080013B
:1001D000632901F07980732901F07E80E32901F021
:1001E0008980F32901F08E80002070471FB50FF041
:1001F00031FF00F06EF801F0D7F804000020002174
:100200000FF046F9401C6060002000210FF02AF931
:10021000E0601FBD10B510BD01F098F81146FFF762
:10022000E5FF0EF08FFB01F071F903B4FFF7F2FF69
:1002300003BC01F0B7F900000B49D1F800C04A68CF
:100240005CF8043B1068184442F8040B8C4528BF46
:10025000A1F1DC0C8A4228BFA1F1DC02C1F800C088
:100260004A6020F000407047B03200100248034955
:10027000014A034B70470000183300101853001058
:10028000183300101CB50C46064B7B4469460090A1
:10029000204600F0EAF904460020694600F0F8F92B
:1002A00020461CBD030400000B4910B5A1F17C02DF
:1002B0000A4CC2E93712372106E000EB104342F83E
:1002C0002130074B00FB03400B1EA1F10101F4DCC0
:1002D00010BD0120E8E7000050320010E119D66699
:1002E000CD0D010010B5431C02E010F8011B71B1E7
:1002F0008107FAD14FF0013202C88C1A8C4314EAFC
:10030000C211F9D0C01A0A0603D0C01E10BDC01A0F
:1003100010BD0A0401D0801E10BD0902FCD0401E91
:1003200010BD40EA010370B59B072ED14FF0013696
:10033000042A2AD308C810C99D1B9D43121F15EA21
:10034000C61517D0D8B2E1B2401A50EA056110D1F3
:1003500098B2A1B2401A50EA05410AD123F07F4079
:1003600024F07F41401A50EA052102D1180EA0EB7B
:10037000146070BDA342DBD018BA21BA884201D9FB
:10038000012070BD4FF0FF3070BD0AB9002070BD74
:1003900010F8013B11F8014B63B1A3420AD1521E80
:1003A00008D010F8013B11F8014B1BB1A34201D159
:1003B000521EEDD1181B70BD032A40F2308010F0A0
:1003C000030C00F0158011F8013BBCF1020F6244F0
:1003D00098BF11F801CB00F8013B38BF11F8013B81
:1003E000A2F1040298BF00F801CB38BF00F8013B2E
:1003F00011F0030300F02580083AC0F0088051F89E
:10040000043B083A51F804CBA0E80810F5E7121DA8
:100410005CBF51F8043B40F8043BAFF30080D207C7
:1004200024BF11F8013B11F801CB48BF11F8012B93
:1004300024BF00F8013B00F801CB48BF00F8012BB6
:10044000704710B5203AC0F00B80B1E81850203A40
:10045000A0E81850B1E81850A0E81850BFF4F5AF64
:100460005FEA027C24BFB1E81850A0E8185044BFEE
:1004700018C918C0BDE810405FEA827C24BF51F85B
:10048000043B40F8043B08BF7047D20728BF31F84F
:10049000023B48BF11F8012B28BF20F8023B48BFA0
:1004A00000F8012B70474FF0000200B51346944648
:1004B0009646203922BFA0E80C50A0E80C50B1F1BC
:1004C0002001BFF4F7AF090728BFA0E80C5048BFD0
:1004D0000CC05DF804EB890028BF40F8042B08BF6E
:1004E000704748BF20F8022B11F0804F18BF00F86A
:1004F000012B704770477047704770B50446856997
:100500000068C10601D5302600E02026C00707D0CC
:1005100070BDD4E9012130469047206A401C20621A
:100520006D1EF6D570BD70B5044685690078C007AC
:1005300007D170BDD4E9012120209047206A401CDA
:1005400020626D1EF6D570BD09684A0501D540B21E
:100550007047C905FCD500B2704709684A0501D546
:10056000C0B27047C905FCD580B2704770B50C4663
:100570000546012A05D02878800600D5EA690023BF
:1005800002E0012305E05B1C934202D2E05C0028FC
:10059000F9D1A869E618C01AA861286A1844286227
:1005A0002846FFF7AAFF04E0D5E9012114F8010B62
:1005B0009047B442F8D32846FFF7B5FF70BD00005E
:1005C0002DE9F0410646002410687529314616A52C
:1005D00010D0FFF7B9FF002802DA404213A507E068
:1005E00031688A0701D512A502E0490704D511A593
:1005F000012401E0FFF7B1FF00210A2206F12407E0
:1006000009E0B0FBF2FCB0FBF2F302FB1C0030305F
:1006100078541846491C0028F3D123462A46304610
:10062000BDE8F04100F061BA000000002D000000BC
:100630002B0000002000000011680268006A5305CA
:1006400001D508700AE0D30501D5088006E013063D
:1006500003D5C217C1E9000200E00860012070471D
:1006600001694A1C02610878704700B58FB0CDE976
:1006700001310021059105497944CDE90310114666
:10068000684600F029F90FB000BD0000E5FFFFFF4C
:100690000A6802F8010B0A60704700002DE9FF5F4D
:1006A00015468A460446DFF8AC80F8440027D8E9AE
:1006B00000103E46CDE9001010E03AF816106A46E8
:1006C00002A800F023FE411C07D02178890603D53B
:1006D000E269391891420DD80744761C20788006CB
:1006E00002D5E069B84205DDAE42E6DB3AF8160015
:1006F0000028E2D1A069C01BA0612046FFF7FDFEE3
:10070000D8E90010CDE90010002017E03AF81810E1
:100710006A4602A800F0FAFDB0F1FF3F81460BD017
:1007200000250DF1080B05E0D4E901211BF80500B7
:1007300090476D1C4D45F7D308F10100B04280464B
:10074000E4DB206A384420622046FFF7ECFEBDE877
:10075000FF9F0000960001002DE9F0418046D21D68
:1007600022F007020025D2E90002F52915A614D0CF
:10077000011E72F1000106DA0023D0EB030063EBE7
:10078000020211A608E0D8F800108B0701D50FA6C9
:1007900002E0490701D50EA601251146002408F103
:1007A000240704E000F05CF930323A55641C50EA4A
:1007B0000102F7D12B46324621464046BDE8F041C2
:1007C00000F093B9000000002D0000002B00000095
:1007D0002000000030B4002100F1240408E002F001
:1007E0000705D208303542EA4372DB086554491CDC
:1007F00052EA0305F3D10468002310A2250708D5A7
:1008000004F020040C4304D0C46901230CA2641E2C
:10081000C46130BC00F069B910B5044621461068C7
:10082000FFF79BFE02462046BDE810400023D1E7BB
:10083000D21D22F00701D1E90023CBE70000000020
:1008400030000000F0B40D460188090502D5214CA6
:100850007C4402E01F4C7C440E34002100F124064D
:1008600008E002F00F071209E75D42EA03721B0974
:100870007754491C52EA0307F3D102780023120788
:1008800004D5702D06D009B1022311342246F0BCE4
:1008900000F02BB901231034F8E770B504460D467B
:1008A00021461068FFF759FE024629462046BDE85A
:1008B00070400023C6E7D21D22F00703D3E90023CE
:1008C000C0E70368126843F0200303600823C36194
:1008D0000023B7E7F8FE00002DE9F05F89460446E3
:1008E0004FF0000ADFF874B1FB44C0F820A02046A6
:1008F000E1688847002874D0252806D0D4E9012172
:100900009047206A401C2062F1E700265F4620469F
:10091000E16888472028054607DB312D05D2781984
:1009200010F8200C08B10643F1E7B00701D526F016
:100930000406C4F81CA00027C4F818A02A2D09D06A
:1009400028460CF0B9FD38B304EB8708303DC8F8F1
:10095000185019E059F8041B204604EB87029161F6
:10096000E1688847012F054618D1E069002820DAA0
:1009700026F020061DE0D8F8180000EB800005EBFB
:1009800040003038C8F818002046E168884705461E
:100990000CF092FD0028EED1012F0AD02E2D08D1A7
:1009A0002046E16888477F1C0546022F46F0200656
:1009B000C4DBA069002803DA404246F00106A061CA
:1009C000F00701D026F010066C2D0BD0682D09D051
:1009D0004C2D39D06A2D35D0742D35D07A2D33D0A9
:1009E00016E038E0E1682F4620468847B8420546C1
:1009F00009D16C2F26D04FF48060E1680643204671
:100A00008847054604E06C2F1AD04FF480700643E7
:100A10000DB3A5F14100192802D8203546F400662F
:100A20004A462946204626604E46FFF797FB80B18E
:100A300001280BD0F61D26F0070000F1080956E743
:100A40004020E4E78020D8E70020D6E706F104093B
:100A50004DE7284652E7206ABDE8F09F88FE000077
:100A600030B5B0F10A024FEA900E71F100034EEA80
:100A7000817EB0EB0E0061EB91014FEA101E4EEA51
:100A8000017E10EB0E0041EB11114FEA102E4EEAE1
:100A9000016E10EB0E0041EB11214FEA104E4EEAB1
:100AA000014E10EB0E0041EB1141401841F10001E5
:100AB0004FEAD00040EA41704FEAD10110EB8005C7
:100AC0004FEA810444EA907444EB01046D1944EB4D
:100AD0000404521BA3414FF0000348BF0A3200D563
:100AE00030BD401C41F1000130BD2DE9F0470D46FD
:100AF00099469246044600F124080168880604D508
:100B0000E06921F01001216000E00120A84201DD30
:100B1000471B00E00027A1697A1902EB0900081AB7
:100B2000A0612078C00602D42046FFF7E6FC00262C
:100B300008E0D4E901211AF806009047206A401C19
:100B4000761C20624E45F4DB2078C0060AD520468C
:100B5000FFF7D3FC06E0D4E9012130209047206A5A
:100B6000401C2062381EA7F10107F4DC07E0D4E93D
:100B7000012118F805009047206A401C2062281EB9
:100B8000A5F10105F3DC2046FFF7CDFC2078000637
:100B900002D50220BDE8F0870120FBE770472DE970
:100BA000FF4F0C461E464FF0FF378BB0D2E90001D5
:100BB000DDF860800A908A46C1F30A5505B93D46C2
:100BC000002108464FF00000BAF1000F00F4400089
:100BD00005DA00EB80004FF4400101EA50004FEAD3
:100BE0009059B9F1010F00DDB9460A9850EA4A0060
:100BF0000ED044F61050A5F2FF3545432F14B8F13E
:100C0000000F1ED07542291E1EDDC9F100021CE036
:100C1000B8F1010F4FF0000001D0302103E0F243A2
:100C200005E02154401CB042FBDB3046002200218D
:100C300021540B99C1F80880C1E900200FB0BDE82C
:100C4000F08FBD1B6D1CDEE74A4600DA694206A83C
:100C500000F0EEFB06AB93E8070003AB83E8070068
:100C600050460A9900F0A4FC8DE80700A0F500505A
:100C70001F3800900398002D09DD42F21F014A46FB
:100C8000084403A90390684600F003FF08E0A0F5BC
:100C900000504A461F3803A90390684600F00DFF34
:100CA0008DE807000004000C03D04FF0FF3041082E
:100CB00000E01046B8F1000F03D000220092154664
:100CC0001EE0751E05D4FFF7CBFE303262556D1E57
:100CD000F9D5B3460122084302D000227F1C04E06C
:100CE0002078302801D100227F1E002A099786D063
:100CF0001DE0112D07DAFFF7B3FE303262556D1C8F
:100D000050EA0102F5D1084302D00098C8B10EE0C4
:100D10000021681E05E0235C625C63542254401E7F
:100D2000491C8142F7DBAB46A81B401E09900020FE
:100D300004F80B000B98099AC0F80880C0E9002B52
:100D40007CE711264FF0000859E72DE9F04F88465F
:100D50000446D21D22F0070191B0D1E90001CDE98E
:100D60000A010CF009FA02460B98C00F01D02D20A1
:100D700007E02068810701D52B2002E0202101EA4D
:100D8000C000032A099001D0072A05DB034641462B
:100D9000204600F00DFB0BE12078800601D5E069CC
:100DA00000E00620B8F1650F814606D0B8F1660F65
:100DB00018D0B8F1670F70D131E00020B9F1110FF0
:100DC000009001DB112301E009F101030AAA01A946
:100DD0000CA8FFF7E4FEDDE90C70002609F101051F
:100DE000834647E001204B4600904FF000470AAA97
:100DF00001A90CA8FFF7D3FEDDE90DB00C995D4603
:100E0000002610B909F101000D18B9EB050003D453
:100E1000C0F1FF3609F10105A5EB09002BE0B9F19E
:100E2000010F01DA4FF001090020B9F1110F009014
:100E3000484601DD112300E003460AAA01A90CA8D7
:100E4000FFF7ADFEDDE90C704D46002683462078A5
:100E500000070AD4AB4500DA5D4601A8012D04DD88
:100E6000411911F8011C302907D04F4502DA17F15A
:100E7000040F04DA012082460FE06D1EEEE7002F1A
:100E800002DCED1B3E4403E0781CA84200DD7D1C23
:100E9000B81B00F1010A4FF000472078000703D487
:100EA000AA4501DB4FF0FF3A0021B7F1004F0DF1E9
:100EB00043088DF8431024D002202B23002F01DAA1
:100EC0007F422D230A21021EA0F1010000DC5FB148
:100ED00097FBF1FC97FBF1F201FB1C7C17460CF130
:100EE000300C08F801CDEEE7A8F10100037021886D
:100EF000090501D5452100E06521A0F1010800F8B0
:100F0000011C09980FA9A1EB0807FF1D00B10120E2
:100F1000411901EBEA70A1693844081A401EA0612A
:100F20002078C00602D42046FFF7E7FA099828B1D6
:100F3000D4E901219047206A401C20622078C00635
:100F400022D52046FFF7D9FA1EE0002E04DBB34578
:100F500002DD01A8805D00E03020D4E90121904746
:100F6000206A401C2062761CAAF101005FEA000A98
:100F70000AD100F019FAC0680168405CD4E9012187
:100F80009047206A401C2062281EA5F10105DCDC88
:100F900007E0D4E9012118F8010B9047206A401CB2
:100FA0002062381EA7F10107F3DC2046FFF7BBFAE9
:100FB000032011B043E600002DE9F04F04460D4632
:100FC000D21D22F0070089B0D0E9009248461746AA
:100FD00039460CF0D1F80246F80F01D02D2307E076
:100FE0002068810701D52B2302E0202101EAC003FC
:100FF0008DF820300BB1012000E00020032A82464A
:1010000001D0072A04DB2946204600F0D1F93DE152
:101010002078800601D40D2500E0E569C7F30A5663
:101020000D2D49DA00214FEA175B08464FF000000A
:10103000002F00F4400007DA00EB80004FF440017D
:1010400000EBD07001EA60008115012901DD4FF04D
:10105000FF3100224FEA850CBCF1180F06D313466E
:10106000ACF118004FF08052C24003E04FF48013FF
:1010700023FA0CF30CF10C0CBCF1200F04D3ACF1EF
:10108000200C09FA0CF001E007FA0CF000294FF0EF
:10109000004801DD18B90FE00ED140450CD319EB23
:1010A00002095F4121B9404502D19F4329EA020963
:1010B000BBEB175F00D0761C2088000502D57B486B
:1010C000784402E079487844193808AA302302F8B5
:1010D0000A30037C0AF10101002E0AF1020A53547E
:1010E0006A4602DC4FF0300101E04FF031014FF071
:1010F00001088DF8001002D0A6F2FF3603E059EA8D
:10110000470100D06A4E002D02DC2178090704D582
:101110004FF002082E218DF80110C44600210BE08B
:10112000C7F303433F01C35C491C6D1E02F808303E
:10113000052908F1010801DA002DF1DC00210CE09D
:1011400000EB1973491C1B786D1E082902F8083042
:101150004FEA091908F1010801DA002DF0DC2178C5
:10116000890602D514E0A8F10108E04505DD02EB8F
:10117000080111F8011C3029F5D0B8F1000F07DD86
:1011800002EB080111F8011C2E2901D1A8F1010878
:10119000002D05DD3E2102F808106D1E08F1010842
:1011A000407C002E02F8080008F1010804DA2D2026
:1011B000764202F8080002E02B2002F808000A211B
:1011C0004FF47A70864208F101080BDB96FBF0F3CE
:1011D000303302F8083096FBF0F308F1010800FB09
:1011E000136601E0642E0CDB642096FBF0F33033D1
:1011F00002F8083096FBF0F308F1010800FB1366D3
:1012000001E00A2E06DB96FBF1F0303002F8080010
:1012100008F1010896FBF1F001FB1060303002F894
:101220000800A16908F1010808EB050202EB0A00B9
:10123000081AA0612078C00602D42046FFF75DF9A5
:10124000216A08AE01EB0A00206204E0D4E9012122
:1012500016F8010B9047BAF1010AF7D22078C006C0
:1012600002D52046FFF749F96E4609E016F8010B52
:101270003E280FD0D4E901219047206A401C20620B
:10128000B8F10108F2D22046FFF74DF909B003206A
:10129000BDE8F08F206A2844206203E0D4E90121F0
:1012A000302090476D1EEBD3F8E70000D4F6000025
:1012B00002FCFFFF10B5436913B1AFF3008001E0FA
:1012C000FFF754F9012010BD127800F124010A70D3
:1012D00000224A700122EDE711684FF0FF32E9E782
:1012E00010B5436913B1AFF3008001E0FFF7D6F901
:1012F000012010BD128800F1240182840022C284E2
:101300000122EDE711684FF0FF32E9E770B51646AC
:101310000C46054600F040F8036893F801010128E7
:1013200006D0FF2C0FD8185D68B101202C7070BD5D
:10133000D3F807013246214603F207130344284637
:10134000BDE8704018474FF0FF3070BD754600F0A3
:10135000E3F8AE4605006946534620F0070085468F
:1013600018B020B5FEF782FFBDE820404FF0000620
:101370004FF000074FF000084FF0000B21F007017D
:10138000AC46ACE8C009ACE8C009ACE8C009ACE8C0
:10139000C0098D467047000010B500F005F8001D2B
:1013A00010BD00BFEDE0000000487047D8320010CB
:1013B0002DE9F0411F46044603260168072A01F47F
:1013C000006004DB08B116A505E016A503E008B12E
:1013D00015A500E015A521F010002060A069C01E31
:1013E000A0610FB1401EA0612046FFF786F84FB103
:1013F000D4E9012138469047206A401C2062C01C75
:10140000206206E0206AFAE7D4E9012115F8010B11
:101410009047761EF8D22046FFF785F8BDE8F081A8
:101420004E414E006E616E00494E4600696E660088
:101430002DE9F047814616468AB0334878440DC8F6
:101440008DE80D0030487844801C03AC0DC884E85A
:101450000D0041F69B300844372190FBF1F290FBE0
:10146000F1F5A5F1800501FB12041B3C02D5644295
:10147000012000E00020DFF890A080460027FA4419
:10148000AAF1BE0A0DE0E00709D03246684607EB34
:1014900047010AEB810100F010FB8DE807006410A2
:1014A0007F1C002CEFD1184F7F44AC3F18E0E807B9
:1014B00014D007EB04100DF1180A90E80E008AE82A
:1014C0000E00C068F04201D198190890324606A972
:1014D00003A800F0F2FA03AB83E807006D10641C68
:1014E000002DE4D132466946B8F1000F03A802D0BE
:1014F00000F0CFFA01E000F0E0FAC9E90001C9F814
:1015000008200AB0BDE8F087E8F300000446AFF316
:1015100000802046FEF789FE00487047B832001070
:101520004FF0013C50F8042B51F8043B9A4221D172
:10153000A2EB0C03934313EACC1317D150F8042BFE
:1015400051F8043B9A4215D1A2EB0C03934313EAE2
:10155000CC130BD150F8042B51F8043B9A4209D11B
:10156000A2EB0C03934313EACC13DBD04FF0000043
:10157000704700BFD01A01BAB1FA81F101F0180129
:1015800022FA01F0CB40C1F12001DBB2C0B2C01A97
:101590002CFA01F3D11A914311EAC311E6D1704735
:1015A0007047000001491820ABBEFEE7260002008C
:1015B0005FEA400C08BF91F0000F4FEA8C234FEA1E
:1015C000C12243EA51514FEA1C5018BF00F5F040C8
:1015D0004FEA300018BF41F000415FEA6C5C00F058
:1015E0002980BCF1FF3F08BF40F080407047130CDA
:1015F00006BF12044FF0100C4FF0000C130E04BF86
:1016000012020CF1080C130F04BF12010CF1040CB0
:10161000930F04BF92000CF1020CD30F04BF5200D1
:101620000CF1010C11464FF00002A0F11F00A0EBDD
:101630000C00704711F0004F08BF704731F00041B7
:101640003FF4D5AF0B0C06BF09044FF0100C4FF060
:10165000000C0B0E04BF09020CF1080C0B0F04BFA9
:1016600009010CF1040C8B0F04BF89000CF1020C72
:10167000CB0F04BF49000CF1010CCCF12003A0EB0F
:101680000C0022FA03F302FA0CF241EA030100F122
:101690000100704720F07F4C80EA030023F07F4771
:1016A000ACEB070303F57C5300F0004003F1FF03AC
:1016B0002DE980494FEA154B09B44FEA144325EA56
:1016C0000B4E24EA03480FF2042606EB13274908C1
:1016D0003E785FEA320203FB0667C7F5000707FBA7
:1016E00006F64FEA54374FEAD64606F1020607FBE4
:1016F000066CCCF1005C4FEA1C472CEA074C07FB58
:1017000006F40CFB06F504EB15464FEA961634BFBB
:1017100000204FF000404FEAD13706FB07FC4FEAAC
:101720001C4C0CFB0BF7D21B03FB0CF761EB070106
:101730000CFB0EF7B0EB074072EB17420CFB08F7FF
:1017400034BFA2EB0742B2EB074261EB17414FEA0D
:101750000C444FEA910706FB07FC4FEA1C4C0CFBBC
:101760000BF7B0EBC74072EB573203FB0CF734BFFB
:10177000A2EBC742B2EBC74261EB57310CFB0EF74D
:10178000B0EBC70072EB57720CFB08F734BFA2EB4B
:10179000C702B2EBC70261EB5771039F4FEA816149
:1017A00041EA921104EBCC044FEAD1374FEA82624E
:1017B00006FB07FC42EA90124FEA80604FEA1C4C9D
:1017C0000CFB0BF7D21B03FB0CF761EB07010CFBC7
:1017D0000EF7B0EB074072EB17420CFB08F734BF73
:1017E000A2EB0742B2EB074261EB17414FEA8C557F
:1017F0004FEA910704EB9C2406FB07FC4FEA1C4CC4
:101800000CFB0BF7B0EBC74072EB573203FB0CF746
:1018100034BFA2EBC742B2EBC74261EB57310CFBBE
:101820000EF7B0EBC70072EB57720CFB08F734BF32
:10183000A2EBC702B2EBC70261EB577115EB4C2567
:101840004FEA816141EA92114FEA82624FEAD13751
:1018500042EA901206FB07FC44F100044FEA806064
:101860004FEA1C4C0CFB0BF7D21B03FB0CF761EB94
:1018700007010CFB0EF7B0EB074072EB17420CFBB5
:1018800008F734BFA2EB0742B2EB074261EB174106
:1018900015EB1C154FEA813141EA92414FEA823241
:1018A00042EA90424FEA80304FEA0C7644F100045D
:1018B00048EA03434EEA0B484FF0000EB2EB080C27
:1018C00071EB030724BF624639464EEB0E0E4FF014
:1018D000000B0018524149414BEB0B0BB2EB080CCB
:1018E00071EB03077BF1000B24BF624639464EEBD8
:1018F0000E0E4FF0000B0018524149414BEB0B0B01
:10190000B2EB080C71EB03077BF1000B24BF6246BE
:1019100039464EEB0E0E51EA020718BF46F001069B
:1019200016EB0E7655F1000254F1000103D5BDE827
:101930008901BDE80088BDE88901BDE80048B61905
:10194000524141EB0101A3F10103704780807F7E8A
:101950007D7C7B7A79787776767574737271717025
:101960006F6E6E6D6C6C6B6A6A69686867666665D7
:101970006464636362616160605F5F5E5E5D5D5C65
:101980005C5B5B5A5A5959585857575656555555D6
:101990005454535352525251515050504F4F4F4E36
:1019A0004E4D4D4D4C4C4C4B4B4B4A4A4A49494984
:1019B00048484847474747464646454545444444C6
:1019C000444343434342424242414141002B26D4D7
:1019D000770021D01CB54FEA370703B44FF0100051
:1019E0004FF010014FF000000FBCBDE810400BF1AC
:1019F000010BBBF1010F08BF5FEA170722BF12F10D
:101A0000010211F101014FF0004143F1000300F028
:101A1000004043EA00007047F9D35708DAE746EA86
:101A2000064613F1400F4FEA16461FDD13F1200F53
:101A3000DFBF16430A46002120335B42C8D0C3F102
:101A4000200746EA064602FA07F74FEA164646EA34
:101A50000706C3F1200722FA03F201FA07F721FA79
:101A600003F14FF0000342EA0702B1E746EA02063B
:101A700046EA06464FEA164646EA0106BCBF46EA73
:101A80000646360C4FF000034FF000024FF0000105
:101A90009EE72DE9C048934630B491E8380007C866
:101AA00031EA400C48BF34EA430C03D5FFF7F2FD9E
:101AB000FFF78CFFF0BCBDE800882DE9C0489346D5
:101AC00030B491E8380007C810F0804F08BF13F019
:101AD000804F03D100F005F8FFF778FFF0BCBDE8B8
:101AE000008820F07F4780EA030023F07F4C07EB5B
:101AF0000C03A3F57C5300F00040A3F1FE0392F029
:101B0000000F00F0B38095F0000F00F077802DE912
:101B100001494FEA11404FEA144621EA004800FB10
:101B200006FC24EA064708FB06F607FB08F800FB5C
:101B300007F718EB06484CEB164C4FEA124B18EB24
:101B400007484FEA15464CEB174022EA0B4E0BFBB9
:101B500006FC25EA06470EFB06F607FB0EFE0BFB0E
:101B600007F71EEB064E4CEB164C4FF000061EEB33
:101B7000074E4CEB174B18EB0B0840F1000018EB2D
:101B80000E0B58EB000840F100008F1A4FF00001D7
:101B90003CBFC943661B14BFB5EB040C00213CBF1E
:101BA000C943F61B4FEA17444EEA8E0E27EA044556
:101BB0004FEA1C4704FB07622CEA074C05FB07F7BA
:101BC0000CFB05F604FB0CFC16EB074642EB174238
:101BD00016EB0C4642EB1C421BEB060658EB0202CE
:101BE000414146EA9E0601D5BDE80189B619524138
:101BF00041EB0101A3F10103BDE801894FEA14455E
:101C00004FEA114724EA054621EA074C05FB07F491
:101C100006FB07F70CFB06F105FB0CFC11EB07417B
:101C200044EB17444FEA124711EB0C4144EB1C44C0
:101C300022EA074C05FB07F206FB07F70CFB06F64A
:101C400005FB0CFC16EB074642EB174216EB0C4665
:101C500042EB1C456A1854F1000148BF7047B619A1
:101C6000524141EB0101A3F10103704795F0000FD0
:101C700037D04FEA11424FEA144721EA024624EADC
:101C8000074C02FB07F106FB07F70CFB06F402FB0F
:101C90000CFC14EB074441EB17414FEA154714EBDA
:101CA0000C4441EB1C4125EA074C02FB07F506FBFF
:101CB00007F70CFB06F602FB0CFC16EB074645EBA0
:101CC000174516EB0C4645EB1C42121951F1000169
:101CD00048BF7047B619524141EB0101A3F101031E
:101CE00070474FEA14454FEA114724EA054621EAB6
:101CF000074C05FB07F106FB07F70CFB06F24FF05C
:101D0000000605FB0CFC12EB074241EB174112EBFE
:101D10000C4251EB1C4148BF7047921841EB010146
:101D2000A3F10103704730B589B005460C46102277
:101D3000002105A80DF004F804F1240205A905A866
:101D40000BF0C9FB9DF8140000F08000E8B100BF63
:101D500000200AE005A9095C4A0005AB411C595C5A
:101D600042EAE11105AA1154401C0F28F2DB9DF84C
:101D700023104906090E8DF8231000BF9DF823009B
:101D800080F087008DF8230016E000BF00200AE0F5
:101D900005A9095C4A0005AB411C595C42EAE11106
:101DA00005AA1154401C0F28F2DB9DF823104906A8
:101DB000090E8DF8231000BF206A10280FD100BF34
:101DC000002009E004F11001095C05AA125C5140F1
:101DD00004F110021154401C1028F3DB59E09DF867
:101DE000140000F08000E8B100BF00200AE005A95F
:101DF000095C4A0005AB411C595C42EAE11105AAA5
:101E00001154401C0F28F2DB9DF823104906090EDF
:101E10008DF8231000BF9DF8230080F087008DF817
:101E2000230016E000BF00200AE005A9095C4A0073
:101E300005AB411C595C42EAE11105AA1154401C52
:101E40000F28F2DB9DF823104906090E8DF82310A8
:101E500000BF802104F11000226A815404E00021B7
:101E600004F11000226A8154206A401C206210286C
:101E7000F5D300BF002009E004F11001095C05AAB8
:101E8000125C514004F110021154401C1028F3DB85
:101E900000BF00BF002006E0215C04F11002125CCC
:101EA00051402154401C1028F6DB00BF102221466F
:101EB00001A80CF02BFF04F12402294601A80BF025
:101EC0000AFB1022002105A80CF03AFF09B030BD32
:101ED00010B504461022002120460CF031FF0020EE
:101EE0002062F022002104F124000CF029FF10BD33
:101EF00070B505460C4605F12402102120460BF072
:101F000017FB70BD2DE9FF4104460F461546206AB8
:101F1000002831D0206AC0F11000A84203D2206A04
:101F2000C0F1100000E028460646B2B204F11001EC
:101F3000236A581839460CF0E9FE206A30442062C2
:101F4000206A102801D3B54201D1BDE8FF8100BF4E
:101F5000002006E0215C04F11002125C5140215483
:101F6000401C1028F6DB00BF04F124022146204665
:101F70000BF0B1FA3744AD1B1CE000BF002004E0B9
:101F8000215C3A5C51402154401C1028F8DB00BF12
:101F90001022214668460CF0B9FE04F1240269467D
:101FA00068460BF098FA1022694620460CF0AEFE07
:101FB0001037103D102DE0D8AAB2394604F11000B8
:101FC0000CF0A4FE256200BFBFE7000010B503F0CF
:101FD0003DFE0446214602A00CF084F910BD00002D
:101FE0002B41435449564154453A25640D0A4F4B01
:101FF0000D0A000010B503F015FE0446214602A0AC
:102000000CF070F910BD00002B414444523A257881
:102010000D0A4F4B0D0A000010B503F009FE0446EF
:10202000214602A00CF05EF910BD00002B41445285
:102030003A25640D0A4F4B0D0A00000010B500242C
:1020400008A00CF04FF900BF06E00948015D09A0A7
:102050000CF048F9601CC4B2082CF6DB07A00CF0A9
:1020600041F910BD2B4150504555493A0000000040
:10207000D804001025303278000000000D0A4F4BC4
:102080000D0A000010B5002408A00CF02BF900BFC9
:1020900006E00948015D09A00CF024F9601CC4B2F7
:1020A000102CF6DB07A00CF01DF910BD2B41505091
:1020B0004B45593A00000000C80400102530327822
:1020C000000000000D0A4F4B0D0A000010B500245F
:1020D00008A00CF007F900BF06E00948015D09A05F
:1020E0000CF000F9601CC4B2102CF6DB07A00CF059
:1020F000F9F810BD2B415050534B45593A000000A0
:10210000B804001025303278000000000D0A4F4B53
:102110000D0A000010B503F0C5FD18B903A00CF0BE
:10212000E1F802E005A00CF0DDF810BD2B43464DB0
:102130003A310D0A4F4B0D0A000000002B43464D6B
:102140003A300D0A4F4B0D0A0000000010B502F0A6
:10215000AFFC0446214602A00CF0C4F810BD0000FC
:102160002B43474154543A25640D0A4F4B0D0A0046
:1021700010B502A00CF0B6F810BD00004D41584952
:10218000494F540D0A4F4B0D0A0000003EB503F0B5
:102190006DFD044660892189E288CDE90021029025
:1021A000A3886288218802A00CF09CF83EBD000044
:1021B0002B43484D41534B3A253034782C2530344D
:1021C000782C253034782C253034782C2530347810
:1021D0002C253034780D0A4F4B0D0A0038B50020FD
:1021E0002649087000241AE0E21704EB127212115B
:1021F000234B33F81220E31704EB13731B11A4EBEA
:1022000003131A4102F001023AB11C480178007828
:10221000401C1A4A10701B484454601CC4B2602C05
:10222000E2DB02F0A1F90546294617A00CF05AF8A6
:1022300000241BE01348005D194901EBC00090F930
:102240000400001100900F48005D0D4605EBC00032
:10225000007940F303030B48005D55F8302009482E
:10226000015D10A00CF03EF8601CC4B20348007879
:102270008442DFDB10A00CF035F838BDA00500105B
:102280003C2B0010A62500102B43485345542049F1
:10229000534D2042616E643A25640D0A000000002F
:1022A000C80600102B434825643A25642C25642C6D
:1022B00025640D0A000000004F4B0D0A00000000CD
:1022C00010B5002400BF08E0074850F82420611C26
:1022D00006A00CF007F8601CC4B2292CF4DB05A0A2
:1022E0000CF000F810BD0000C002001025642C2581
:1022F000730D0A004F4B0D0A0000000010B50024BA
:1023000003F0B8FC044604F1410102A00BF0EAFF1F
:1023100010BD00002B434C4153533A25630D0A4F27
:102320004B0D0A001CB5694601A803F0EDFC9DF8B1
:102330000020BDF9041002A00BF0D4FF1CBD00006A
:102340002B4353513A25642C25640D0A4F4B0D0A3B
:10235000000000002DE9F04FBFB006460F464FF0D9
:10236000FF3900203E900024022F0DDCF749086859
:10237000FDF7B8FF8246F548524601683046FDF742
:10238000D0FFC8B9A14617E04FF0010910E0EF49AE
:1023900051F82900FDF7A6FF8246EC4850F82910B5
:1023A00052463046FDF7BDFF00B904E009F10109CE
:1023B000B9F1290FEBDB00BFB9F1290F06DB0220D1
:1023C00001F044F900203FB0BDE8F08FDF4951F83B
:1023D0002900FDF787FFC4B2B9F1280F81F02580ED
:1023E000DFE819F028002C002F00320035003A00F9
:1023F0005F0065006B0095009800CB000701590154
:10240000A2017702EF021A033A0364039603CB0397
:10241000000403042E0431046E049D048805B805ED
:102420003C06B306B606E106E406E70612074D07CA
:10243000C507C80701F0C0FB00F0F7BF01F0D0F8F6
:10244000FAE7FFF795FEF7E7FFF73AFFF4E701F049
:10245000D1FA04F0B9FAEFE73CA801F0E3FC9DF8EB
:10246000F40001069DF8F50001EB00419DF8F6002F
:1024700001EB00209DF8F7100844B5490860EC22F4
:1024800010316846FDF7DDFFB1480FC804F0D0F801
:1024900001F088FB4FF4FA6001F0F6FE04F094FAC4
:1024A000CAE701F0B7FB0120AA490870C4E7012080
:1024B000A949087001F0A4FBBEE7A74202D100F0D1
:1024C000C1FF23E0601C874208D1305D3F2802D164
:1024D00000F0B8FF1AE002203E9017E0A01C8742EF
:1024E00012D1601C305C30280BDB601C305C312862
:1024F00007DC601C305C30389849486601F0C0FA4F
:1025000004E002203E9001E001203E9094E700F0BC
:10251000A9FF91E7A74202D1FFF7B4FD2CE0601CB0
:10252000874208D1305D3F2802D1FFF7ABFD23E0A1
:1025300002203E9020E004F1210087421AD14FF0A2
:102540000008651C11E0691C705C02F06DF98246A0
:10255000705D02F069F90AEB0010C2B2404608F162
:1025600001087E4924310A54AD1CBD42EBDB01F069
:1025700087FA01E001203E905EE7A74202D1FFF713
:10258000BDFE35E0601C874208D1305D3F2802D196
:10259000FFF7B4FE2CE002203E9029E0A01C874209
:1025A00024D1601C305C412803D0601C305C43287F
:1025B00008D1611C715C4139C8B203F0CDFD01F056
:1025C0005FFA15E0601C305C612803D0601C305C51
:1025D000632808D1611C715C6139C8B203F0BCFD8D
:1025E00001F04EFA04E002203E9001E001203E900E
:1025F00022E7A74202D101F015F84BE0601C8742A8
:1026000008D1305D3F2802D101F00CF842E00220F1
:102610003E903FE0A01C87423AD1601C305C3028DD
:1026200033DB601C305C38282FDC4FF0000A601C64
:10263000305C3038092821D2DFE800F005080B0EA5
:102640001114171A1D004FF0000A17E04FF0010A8D
:1026500014E04FF0020A11E04FF0030A0EE04FF0D1
:10266000040A0BE04FF0050A08E04FF0060A05E007
:102670004FF0070A02E04FF0080A00BF00BF5046C3
:1026800003F0C2FD01F0FCF904E002203E9001E0FD
:1026900001203E90D0E6A74202D1FFF777FD42E04D
:1026A000601C874208D1305D3F2802D1FFF76EFDE4
:1026B00039E002203E9036E004F11E00874230D11E
:1026C000002526E005EB8502611C1144705C02F0D8
:1026D000ABF84FEA003A05EB8502A11C1144705C8F
:1026E00002F0A2F80AEB002A05EB8502E11C114476
:1026F000705C02F099F80AEB001A05EB8502211DC7
:102700001144705C02F090F850443BA921F8150088
:102710006D1C062DD6DB3BA803F008FD01F0B0F9D7
:1027200001E001203E9087E6A74202D1FFF756FD67
:10273000CEE0601C874213D1305D3F2802D1FFF705
:102740004DFDC5E002203E90C2E00000C002001036
:10275000A8030010A4030010A3030010A404001099
:1027600004F1100087427DDBC01C87427ADC03F055
:102770009FFA082877D14FF0000B651C0DE0705DC3
:102780002C2805D15846411C01F0FF0B3BA90D54E4
:10279000BBF1040F00DB02E06D1CBD42EFDB00BFAC
:1027A000BBF1030F7DD14FF0000A651C09E0705D9D
:1027B00002F03AF80AEB8A0100EB410000F0FF0A50
:1027C0006D1C9DF8EC00A842F1DC00203C909DF8C7
:1027D000EC00451C09E0705D02F026F83C9901EB25
:1027E000810100EB41003C906D1C9DF8ED00A8427A
:1027F000F1DC9DF9F40020F00F008DF8F4009DF855
:10280000ED00451C0FE0705D02F00EF89DF8F4102D
:1028100001EB810100EB41009DF9F41060F303012D
:102820008DF8F4106D1C9DF8EE00A842EBDC9DF8CD
:10283000F40020F0F00040B28DF8F4009DF8EE00B6
:10284000451C14E0705D01F0EFFF9DF8F4100911D4
:1028500001EB810100EB41009DF8F41060F30711DA
:1028600048B201E032E02EE08DF8F4006D1CBD426C
:10287000E8DBBAF1100F20DAFA493C9888421CD9FB
:10288000F9493C98884218D29DF8F40040F30300BF
:102890009DF9F410B0EB211F0FDC9DF9F40010211D
:1028A00000E00DE0B1EB201F07DD5046DDE93C12F2
:1028B00003F066F901F0E4F804E002203E9001E044
:1028C00001203E9004E003203E9001E001203E9074
:1028D000B2E5A74202D101F079F971E0601C8742AC
:1028E00008D1305D3F2802D101F070F968E0022084
:1028F0003E9065E004F10C0087425FDB401C87429C
:102900005CDC4FF0000A651C0DE0705D2C2805D1E1
:102910005046411C01F0FF0A3DA90D54BAF1020FC7
:1029200000DB02E06D1CBD42EFDB00BFBAF1010F1E
:1029300041D100203B90651C09E0705D01F074FFFF
:102940003B9901EB810100EB41003B906D1C9DF830
:10295000F400A842F1DC00208DF8F0009DF8F400AE
:10296000451C0CE0705D01F05FFF9DF8F01001EB7D
:10297000810100EB4100C0B28DF8F0006D1CBD423A
:10298000F0DBB8493B98884212D9B7493B98884256
:102990000ED29DF8F00010280ADADDE93B0103F0C1
:1029A000B9FC10B101F06CF807E002203E9004E0A1
:1029B00002203E9001E001203E9001E001203E9087
:1029C0003AE5A74202D1FFF701FB24E0601C8742F1
:1029D00008D1305D3F2802D1FFF7F8FA1BE0022052
:1029E0003E9018E0A01C874213D1601C305C302858
:1029F0000CDB601C305C312808DC611C715C3039F8
:102A0000C8B203F04BFB01F03BF804E002203E901B
:102A100001E001203E900FE5A74208D103F016F92E
:102A200010B901F02DF816E0FFF790FB13E0601CE1
:102A300087420ED1305D3F2808D103F007F910B965
:102A400001F01EF807E0FFF781FB04E002203E9052
:102A500001E001203E90EFE4A74202D1FFF7CAFA5D
:102A600023E0601C874208D1305D3F2802D1FFF788
:102A7000C1FA1AE002203E9017E004F109008742F3
:102A800011D14FF0000A651C05E0705D01F0CCFE2D
:102A900000EB0A1A6D1CBD42F7DB504603F0D2FA78
:102AA00000F0EEFF01E001203E90C5E4A74202D114
:102AB000FFF7C4FA2BE0601C874208D1305D3F2845
:102AC00002D1FFF7BBFA22E002203E901FE004F1A2
:102AD0001100874219D14FF00008651C10E0691CF5
:102AE000705C01F0A1FE8246705D01F09DFE0AEB74
:102AF0000010C2B2404608F101085C490A54AD1CFE
:102B0000BD42ECDB00F0BCFF01E001203E9093E40D
:102B1000A74202D100F090FF2EE0601C874208D14E
:102B2000305D3F2802D100F087FF25E002203E9073
:102B300022E004F1210087421CD14FF00008651CFF
:102B400010E0691C705C01F06FFE8246705D01F060
:102B50006BFE0AEB0010C2B2414608F101083AA828
:102B60004254AD1CBD42ECDB3AA803F077FB00F009
:102B700087FF01E001203E905EE4A74202D1FFF70B
:102B8000A5FA2EE0601C874208D1305D3F2802D1B3
:102B9000FFF79CFA25E002203E9022E004F121009C
:102BA00087421CD14FF00008651C10E0691C705C66
:102BB00001F03AFE8246705D01F036FE0AEB00102D
:102BC000C2B2404608F101083AA90A54AD1CBD4200
:102BD000ECDB3AA803F04CFA00F052FF01E00120D0
:102BE0003E9029E400F040FD26E4A74202D100F027
:102BF000C7FF24E0601C874208D1305D3F2802D126
:102C000000F0BEFF1BE002203E9018E0A01C8742AF
:102C100013D1601C305C30280CDB601C305C352824
:102C200008DC611C715C3039C8B203F0BDFB00F0F8
:102C300027FF04E002203E9001E001203E90F4E3F3
:102C4000FFF770FBF1E3A74202D100F087FF36E007
:102C5000601C87420FD1305D3F2809D100F07EFF14
:102C60002DE000008047A11980AC6E37D804001019
:102C700002203E9023E0A01C87421EDB201D8742DD
:102C80001BDC4FF0000A651C09E0705D01F0CCFD13
:102C90000AEB8A0100EB410000F0FF0A6D1CBD4207
:102CA000F3DBBAF1000F05DD504603F071FB00F0D5
:102CB000E7FE01E002203E9001E001203E90B4E3F7
:102CC000A74202D1FFF7A8F928E0601C874208D18B
:102CD000305D3F2802D1FFF79FF91FE002203E90B0
:102CE0001CE0A01C874217D1601C305C302810DB30
:102CF000601C305C31280CDC611C715C303909B11E
:102D0000012100E00021084603F0A6F900F0B8FE1A
:102D100004E002203E9001E001203E9085E3A742BE
:102D200002D100F02FFCE4E0601C874208D1305D46
:102D30003F2802D100F026FCDBE002203E90D8E0E4
:102D4000A01C87421FDBE01C87421CDC4FF0000AFE
:102D5000651C09E0705D01F067FD0AEB8A0100EB7C
:102D6000410000F0FF0A6D1CBD42F3DBBAF1100F09
:102D700008DA504603F0B0F910B100F081FE01E02E
:102D800002203E90B5E0601D874215D1601C305C8A
:102D90004C280ED1A01C305C49280AD1E01C305CC4
:102DA000532806D1201D305C542802D100F07EFB50
:102DB0009FE002203E909CE004F10F0087427DDB03
:102DC000C01C87427ADC02F073FF082877D14FF0ED
:102DD000000B651C0DE0705D2C2805D15846411C88
:102DE00001F0FF0B3CA90D54BBF1050F00DB02E025
:102DF0006D1CBD42EFDB00BFBBF1040F71D10020A1
:102E00003B9082463A9039909DF8F000451C0AE0CC
:102E1000705D01F009FD3B9901EB810100EB410080
:102E2000C0B23B906D1C9DF8F100A842F0DC9DF80B
:102E3000F100451C09E0705D01F0F6FC0AEB8A0127
:102E400000EB410000F0FF0A6D1C9DF8F200A84263
:102E5000F1DC9DF8F200451C0AE0705D01F0E4FC35
:102E60003A9901EB810100EB4100C0B23A906D1C30
:102E70009DF8F300A842F0DC9DF8F300451C0AE041
:102E8000705D01F0D1FC399901EB810100EB41004B
:102E9000C0B239906D1CBD42F2DB3B9810281CDAA1
:102EA000BAF1070F19DBBAF10C0F16DC3A980228B9
:102EB00013DC3998062810DA514601E017E013E0D8
:102EC000DDE939323B9803F057F9012802D100F0CF
:102ED000D7FD04E002203E9001E002203E9002E097
:102EE000FFE701203E9004E003203E9001E0012036
:102EF0003E909AE2A74202D1FFF70CF929E0601C4C
:102F0000874208D1305D3F2802D1FFF703F920E066
:102F100002203E901DE0A01C874218D1601C305C4E
:102F2000302811DB601C305C31280DDC601C305C0B
:102F3000302803D1012003F061F902E0002003F002
:102F40005DF900F09DFD04E002203E9001E00120CB
:102F50003E906AE2601D874203DB04F2E91087427B
:102F600002DD01203E9078E04FF0000A651C04E08D
:102F7000705D2C2800D103E06D1C601D8542F7DBDD
:102F800000BF601D854265DA04F101080BE016F808
:102F9000080001F049FC0AEB8A0100EB410000F057
:102FA000FF0A08F10108A845F1DBBAF1F30F4EDA88
:102FB000781B401EB0EB4A0F46D102F095FE40B997
:102FC00002F044FE012804D1011FFCA00BF08AF995
:102FD00042E0FE480078C0EBC000FD4A02EB001062
:102FE000FC4AD26B805CC0F10C0041B2002250461A
:102FF00009F09EF810B30020F749088005F1010898
:1030000016E008F10101705C01F00EFC834616F831
:10301000080001F009FC0BEB0010C1B2EE48028879
:103020000088401CEC4B1880EC48815408F10208E1
:10303000B845E6DB0120EA4908700DE06FF00301B6
:10304000DEA00BF04FF907E002203E9004E00120E3
:103050003E9001E001203E9000BFE6E1601D874206
:1030600002DBF230874202DD01203E906CE04FF03F
:10307000000A651C04E0705D2C2800D103E06D1C83
:10308000601D8542F7DB00BF601D854259DA04F1FF
:1030900001080BE016F8080001F0C6FB0AEB8A01F4
:1030A00000EB410000F0FF0A08F10108A845F1DB40
:1030B000BAF1F30F42DA781B401E50453BD102F0C3
:1030C00013FE40B902F0C2FD012804D1011FC5A0C2
:1030D0000BF008F937E0BD480078C0EBC000BC4AEF
:1030E00002EB0010BB4AD26B805CC0F10C0041B215
:1030F0000022504609F01CF8B8B10020B6490880FB
:1031000005F101080BE016F80810B34802880088A2
:10311000401CB14B1880B148815408F10108B845F2
:10312000F1DB0220AE4908700DE06FF00301ADA0A5
:103130000BF0D8F807E002203E9004E001203E901A
:1031400001E001203E9000BF6FE100F03BFC6CE12C
:10315000A74202D100F05AFC24E0601C874208D14B
:10316000305D3F2802D100F051FC1BE002203E9070
:1031700018E0A01C874213D1601C305C30280CDBA7
:10318000601C305C312808DC611C715C3039C8B2CD
:1031900003F05EF800F074FC04E002203E9001E0D1
:1031A00001203E9041E100F08BFB3EE100F0ECFBA2
:1031B0003BE1A74202D100F0D1FB24E0601C874232
:1031C00008D1305D3F2802D100F0C8FB1BE002208F
:1031D0003E9018E0A01C874213D1601C305C302860
:1031E0000CDB601C305C322808DC611C715C3039FF
:1031F000C8B203F027F800F043FC04E002203E9040
:1032000001E001203E9010E102F06EFD40B902F0B5
:103210001DFD012804D1011F76A00BF063F82DE0FD
:1032200000206D4908803522084601880088401C2E
:10323000694B188069484254352118460288008835
:10324000401C188065488154184602880088401C3C
:10325000188062488154184602880088401C1880F3
:103260005E488154184602880088401C18805B48DC
:10327000815402F0C6FE032059490870D5E0601D54
:10328000874203DB04F2E910874202DD01203E9011
:103290006CE04FF0000A651C04E0705D2C2800D142
:1032A00003E06D1C601D8542F7DB00BF601D854299
:1032B00059DA04F101080BE016F8080001F0B4FA3D
:1032C0000AEB8A0100EB410000F0FF0A08F1010857
:1032D000A845F1DBBAF1F30F42DA781B401EB0EBE0
:1032E0004A0F3AD139480078C0EBC000384A02EBA7
:1032F0000010384AD26B805CC0F10C0041B2002251
:10330000504608F015FF10B300203349088005F13E
:10331000010816E008F10101705C01F085FA8346AE
:1033200016F8080001F080FA0BEB0010C1B22A4831
:1033300002880088401C284B18802848815408F1D6
:103340000208B845E6DB0420254908700DE06FF05F
:1033500003012DA00AF0C6FF07E002203E9004E022
:1033600001203E9001E001203E9000BF5DE000F0B2
:1033700091FB5AE0A74202D100F0DAFB54E0601C56
:10338000874208D1305D3F2802D100F0D1FB4BE0ED
:1033900002203E9048E0A01C874243D1601C305C74
:1033A00030283CDB601C305C322838DC611C715CEE
:1033B0003039C8B202F068FF2EE000002B4E4D47B6
:1033C000533A25640D0A4F4B0D0A0000C10E001040
:1033D000C40E0010A4040010A0030010AC240010C0
:1033E000A20300102B4E434D47533A25640D0A4F5C
:1033F0004B0D0A002B4C434845434B3A25640D0ABC
:103400004F4B0D0A000000002B504D47533A2564E6
:103410000D0A4F4B0D0A000000F032FB04E00220C1
:103420003E9001E001203E9000BF00BF3E9838B1C1
:103430003E99891CC8B200F009F90020FEF7C3BF0D
:103440000120FBE710B50348416E03A00AF04AFFD4
:1034500010BD0000A40400102B44454255473A25F6
:10346000640D0A001CB5684602F00EFC08A00AF0C4
:1034700039FF002406E01DF8041008A00AF032FF0E
:10348000601CC4B2082CF6DB06A00AF02BFF1CBDA2
:103490002B4465764555493A0000000025303278C6
:1034A000000000000D0A4F4B0D0A000070B500240B
:1034B00001F05AF8054629461EA00AF013FF00BF86
:1034C00032E022480078C0EBC000214901EB001037
:1034D000005D20B921461FA00AF004FF22E01B482E
:1034E0000078C0EBC0001A4901EB0010005D3228E3
:1034F00004D121461AA00AF0F5FE13E01348007823
:10350000C0EBC000124901EB00101030035D0F4802
:103510000078C0EBC00001EB0010025D214613A053
:103520000AF0E0FE601CC4B2102CCADB13A00AF043
:10353000D9FE70BD2B44524C4953542049534D2061
:1035400042616E643A25640D0A000000C10E00104D
:10355000C40E00102B445225642C4446550D0A001D
:103560002B445225642C46534B0D0A002B44522504
:10357000642C25642C25640D0A0000004F4B0D0AB5
:103580000000000038B5002402F066FB044602F09B
:1035900007FC054600900A480078C0EBC0000949C6
:1035A00001EB00101030035D05480078C0EBC0004F
:1035B00001EB0010025D214603A00AF093FE38BD26
:1035C000C10E0010C40E00102B44523A25642C2565
:1035D000642C25642C25640D0A4F4B0D0A00000055
:1035E00010B5034B034A044904A00AF07BFE10BD4A
:1035F000780300106B030010640300104D4158491C
:10360000494F540D0A25730D0A5265766973696F27
:103610006E3A25730D0A446174653A25730D0A4F9D
:103620004B0D0A0010B500F09FFF0446214602A092
:103630000AF058FE10BD00002B49534D42414E4444
:103640003A25640D0A4F4B0D0A00000010B50446E0
:10365000214602A00AF046FE10BD00002B45525242
:103660004F523A25640D0A0070B586B0002502F06D
:1036700001FB00F1410631463CA00AF033FE00F0A8
:1036800073FF064631463EA00AF02CFE02F0EEFA29
:10369000044660892189E288CDE900210290A3884F
:1036A000628821883CA00AF01DFE02A802F066FB99
:1036B000DDE90201CDE904019DF8142042A004993E
:1036C0000AF010FE02F0C2FA0646314644A00AF0A3
:1036D00009FE02F071FB0646314647A00AF002FEE1
:1036E00002F064FB0646314648A00AF0FBFD02F0FA
:1036F0009FFA064631464AA00AF0F4FD02F0ACFA01
:10370000054602F04DFB064600904A480078C0EBA3
:10371000C000494901EB00101030435D4548007876
:10372000C0EBC00001EB0010425D294643A00AF047
:10373000D9FD02F0B7FA18B947A00AF0D3FD02E0AC
:103740004AA00AF0CFFD02F0C3FA064631464CA06B
:103750000AF0C8FD02F0D2FA064631464FA00AF040
:10376000C1FD55A00AF0BEFD06B070BD2B4E434F03
:103770004E4649473A434C4153532C25630D0A00AA
:103780002B4E434F4E4649473A49534D42414E44D2
:103790002C25640D0A0000002B4E434F4E4649472E
:1037A0003A43484D41534B2C253034782C25303446
:1037B000782C253034782C253034782C253034780A
:1037C0002C253034780D0A002B4E434F4E46494786
:1037D0003A525857494E322C25642C25640D0A0064
:1037E0002B4E434F4E4649473A4143544956415464
:1037F000452C25640D0A00002B4E434F4E46494789
:103800003A504F5745522C25640D0A002B4E434F1A
:103810004E4649473A504F52542C25640D0A000039
:103820002B4E434F4E4649473A4144522C25640D96
:103830000A000000C10E0010C40E00102B4E434FB2
:103840004E4649473A44522C25642C25642C256465
:103850002C25640D0A0000002B4E434F4E4649476D
:103860003A43464D2C310D0A000000002B4E434FC9
:103870004E4649473A43464D2C300D0A00000000A1
:103880002B4E434F4E4649473A4E4E4D4920456ECA
:1038900061626C652C25640D0A0000002B4E434FBD
:1038A0004E4649473A504E4D4920456E61626C651F
:1038B0002C25640D0A0000004F4B0D0A000000008B
:1038C00070B5002500241848007818B917A00AF030
:1038D00009FD27E01748007813490978441A002C9D
:1038E00000DA641D1448015D14A00AF0FBFC0025F9
:1038F0000CE0C4EBC400C0EBC410134A02EB400060
:10390000415D12A00AF0EEFC681CC5B20A48005DD9
:10391000A842EEDC0FA00AF0E5FC03480078401E48
:103920000149087070BD0000920300104F4B0D0A52
:1039300000000000910300108C0300102B4E4D4737
:10394000523A25642C0000001C1D001025303278EE
:10395000000000000D0A4F4B0D0A000010B502F0E8
:10396000B7F90446214602A00AF0BCFC10BD0000D5
:103970002B4E4E4D4920456E61626C653A25640DB3
:103980000A4F4B0D0A00000010B502F087F90446FB
:103990000448224603680448017804A00AF0A2FC07
:1039A00010BD000088030010920300102B4E514DF3
:1039B00047523A25642C25642C25640D0A4F4B0D83
:1039C0000A00000010B502F001FA0446034821463F
:1039D000026803A00AF086FC10BD000084030010FA
:1039E0002B4E514D47533A25642C25640D0A4F4BFD
:1039F0000D0A000010B502A00AF074FC10BD000012
:103A00005245424F4F54494E470D0A0010B502F03F
:103A100065F90446214602A00AF064FC10BD0000CE
:103A20002B4E534D4920456E61626C653A25640DFD
:103A30000A4F4B0D0A00000010B5002408A00AF040
:103A400051FC00BF06E00948015D09A00AF04AFCEC
:103A5000601CC4B2102CF6DB07A00AF043FC10BDBA
:103A60002B4E574B534B45593A000000A804001009
:103A700025303278000000000D0A4F4B0D0A00007F
:103A800010B502A00AF02EFC10BD00004F4B0D0A2D
:103A90000000000070B5002500241848007818B90F
:103AA00017A00AF01FFC27E017480078134909788F
:103AB000441A002C00DAE41C1448015D14A00AF03A
:103AC00011FC00250CE0C4EBC400C0EBC410134A89
:103AD00002EB4000415D12A00AF004FC681CC5B274
:103AE0000A48005DA842EEDC0FA00AF0FBFB034889
:103AF0000078401E0149087070BD00009703001057
:103B00004F4B0D0A000000009603001093030010B5
:103B10002B504D47523A25642C000000D62100104E
:103B200025303278000000000D0A4F4B0D0A0000CE
:103B300010B502F0E3F80446214602A00AF0D2FBD9
:103B400010BD00002B504E4D4920456E61626C65E2
:103B50003A25640D0A4F4B0D0A00000010B502F023
:103B600025F90446214602A00AF0BCFB10BD000066
:103B70002B504F52543A25640D0A4F4B0D0A00004A
:103B800010B502F019F90446214602A00AF0AAFB7A
:103B900010BD00002B504F5745523A25640D0A4F77
:103BA0004B0D0A0010B502A00AF09CFB10BD0000EE
:103BB0004F4B0D0A0000000010B502A00AF092FB66
:103BC00010BD00004F4B0D0A000000001FB56846F5
:103BD00002F0D4F8DDE90001CDE902019DF80C20E6
:103BE00002A002990AF07EFB1FBD00002B5258571D
:103BF000494E323A25642C25640D0A4F4B0D0A00BC
:103C000010B502A00AF06EFB10BD00004F4B0D0A6C
:103C10000000000010B502A00AF064FB10BD000017
:103C2000534C454550494E470D0A000070B50346B8
:103C30000124981E07287CD2DFE800F00412273503
:103C40004A667C00474800780F2808DA454805781E
:103C50000078401C434E307043484355002479E0BF
:103C6000404800780E280FDA3E4805780078401C5E
:103C70003C4E30703C484355304605780078401C37
:103C8000307039484155002464E0364800780F28E8
:103C900008DA344805780078401C324E30703248DB
:103CA0004355002456E02F4800780E280FDA2D489F
:103CB00005780078401C2B4E30702B484355304619
:103CC00005780078401C307027484155002441E0B9
:103CD000244800780D2816DA224805780078401C20
:103CE000204E307020484355304605780078401CFF
:103CF00030701D484155304605780078401C3070C2
:103D000019484255002425E0164800780E280FDA9D
:103D1000144805780078401C124E30701248435504
:103D2000304605780078401C30700F48415500241B
:103D300010E00DE00B4800780F2808DA09480578F4
:103D40000078401C074E307007484355002401E0BE
:103D5000022070BD00BF14B90120044D2870204618
:103D6000F7E700004B0600102D2B00104A0600104C
:103D700070B503460C460020264D95F90010012B26
:103D800045D119B90025244E356040E0224D2D68FB
:103D9000402D01D3012000E000201F4D2D68602D33
:103DA00035D31D4D2D78203D05F03F05002D2ED13A
:103DB000002901DD4D1E69B2F9B9012C27D1174D3B
:103DC0002D78012D0AD0154D2D78042D06D0144DD7
:103DD0002D8845F00705124E358018E00F4D2D78DF
:103DE000012D0BD14FF6FF750D4E35807580B580D6
:103DF000F580FF2535810025758108E04FF6FF75B8
:103E0000074E35807580B580F580358175811170DC
:103E100070BD0000D209001044060010C10E001051
:103E20003C2B00100146002006E000F10802044B84
:103E30009A5C0A54421CD0B20828F6DB7047000096
:103E4000043100102DE9F04188B000BF00240DE0DE
:103E50000020F24901EBC4014871F04901EBC401B3
:103E60000871EE4941F83400601CC4B2602CEFDBED
:103E7000EB480078082823D0E9480078C0EBC00060
:103E8000E84901EB0012E548D2E9141206C0E44803
:103E90000078C0EBC000E34901EB0010DF49C26DC0
:103EA000806DC1E90202DE480078C0EBC000DD4948
:103EB00001EB0010D949426E006EC1E9040241E0F5
:103EC00000241AE0D84850F824502F0905F00F08B4
:103ED0000020D24901EBC401487148EA071040B202
:103EE000CE4901EBC4010871280A4FF47A714843A6
:103EF000CA4941F83400601CC4B2082CE2DB00243B
:103F00000CE0C9484738005DC5490978C1EBC101DB
:103F1000C44A02EB01110855601CC4B2102CF0DB3E
:103F200000240DE0C0483738015DBD480078C0EB83
:103F3000C000BC4A02EB001010300155601CC4B236
:103F4000102CEFDBB6480078012828D130208DF8FE
:103F50001C0003240BE0B548B54901FB04000690A2
:103F60002046DDE9061200F0E5FE601CC4B2402CDC
:103F7000F1DB44208DF81C0000240DE0AD48AE4973
:103F800001FB0400069004F14001C8B2DDE906120D
:103F900000F0D0FE601CC4B2082CEFDBCDE0A048DE
:103FA0000078042813D150208DF81C0003240BE066
:103FB000A2489F4901FB040006902046DDE9061255
:103FC00000F0B8FE601CC4B2602CF1DBB5E0944890
:103FD0000078022813D150208DF81C0003240BE038
:103FE0009748934901FB040006902046DDE906123C
:103FF00000F0A0FE601CC4B2102CF1DB9DE08848EC
:10400000007898B950208DF81C0003240BE08D48EF
:10401000874901FB040006902046DDE9061200F006
:1040200089FE601CC4B2102CF1DB86E07C4800786D
:10403000032813D150208DF81C0003240BE0824884
:104040007B4901FB040006902046DDE9061200F0E2
:1040500071FE601CC4B2102CF1DB6EE07048007879
:10406000052813D150208DF81C0003240BE077485D
:104070006F4901FB040006902046DDE9061200F0BE
:1040800059FE601CC4B2102CF1DB56E06448007885
:1040900006281BD150208DF81C0003240CE0E01EE4
:1040A0006B49634A02FB001006902046DDE90612C8
:1040B00000F040FE601CC4B2072CF0DB654806909F
:1040C0002046DDE9061200F035FE36E0544800785F
:1040D000072813D150208DF81C0003240BE05E4804
:1040E000534901FB040006902046DDE9061200F06A
:1040F00021FE601CC4B2192CF1DD1EE003241AE07D
:10410000494850F82400A0B1474850F824502F09DE
:1041100005F00F08280A4FF47A714843069048EAE0
:10412000071040B28DF81C002046DDE9061200F0B1
:1041300001FE601CC4B2102CE2DB002433E0002638
:104140002DE03948543830F81400304100F00100B7
:10415000D0B106EB0410314951F8300048B93F485E
:1041600030F814100120B04081433C4820F814106E
:1041700013E03A4830F814100120B040014388B2EF
:10418000364921F8140008E0344830F814000121C1
:10419000B1408843314921F81400701CC6B2102E7A
:1041A000CFDB601CC4B2062CC9DB01202C4908708F
:1041B0001D48BC38B0F872001B49BC39B1F870100A
:1041C000194ABC3AB2F86E20CDE900210290164897
:1041D000BC38B0F86C30B0F86A20B0F8681021A094
:1041E0000AF080F8104824380D49097850F8215019
:1041F000280A4FF47A714843049005F00F008DF8B7
:104200001400DDE9040101F0A7FC0749BC3991F86D
:104210003C0001F061FF08B0BDE8F081C806001065
:10422000C10E0010C40E0010600500106001C835FA
:10423000400D0300C0AFD235006A18006035081C7D
:1042400000EA0637A027BE33E039762ED8B9D11957
:1042500000B5FA36809AF4360016D6363C2B00109C
:10426000C00E00104368616E6E656C4D61736B200B
:104270003A25642C25642C25642C25642C25642C7B
:1042800025640D0A00000000002107E0002201E083
:10429000531C9AB20A2AFBDB4B1C99B28142F5DB14
:1042A0007047002107E0002201E0531C9AB26E2AF9
:1042B000FBDB4B1C99B28142F5DB704730B50246FF
:1042C00000231046D41702EB1474C4F30713042B15
:1042D00001DC602A01DB002030BD1046D41702EB60
:1042E00014742411A2EB04150124AC4031F81350CE
:1042F00025EA040421F813400120EDE72DE9F041FF
:1043000004460D4616461F463B4632462946204681
:1043100000F0B7FABDE8F0812DE9F04104460D4602
:1043200016461F463B4632462946204600F0E3FA31
:10433000BDE8F08110B500BF73203D49086608460E
:10434000006D20F4E04008650846006A20F07F40D8
:1043500040F0C05008620020086600BF00BF732014
:1043600008660846006D20F4E02008650846406AAB
:1043700020F0FF0040F0180048620020086600BFEF
:104380002C48006809F018FC2A48006809F068FC0D
:10439000022027499431086000BF73202449086631
:1043A0000846806C20F4E02088640846406920F0CC
:1043B000FF0048610020086600BF00BF7320086648
:1043C0000846806C20F4E00088640846406920F4C8
:1043D0007F4040F4807048610020086600BF0815E7
:1043E00013499031086040101149C1F89000401005
:1043F0000F4990310860C001086040020860400029
:104400000860401308600001086080100860C00068
:10441000086040000860C0020549C1F8900001F042
:10442000D9FF0AF011F9012009F0A6FB10BD000028
:10443000000001406400001010B50446C4F3C62219
:10444000C4F38041014809F083FA10BD21433412BE
:104450007047000070B504460D46054805600548E4
:104460000460012302490268034809F07FFA70BD25
:10447000CC000010D000001021433412704700001F
:1044800070B504460E4615462548007830B101281F
:104490000AD002281FD003283FD131E0412C02D19D
:1044A00001201F49087038E0542C10D102202880C8
:1044B000412030705420707001201A4908704FF468
:1044C000FA601949086002201549087002E00020CE
:1044D0001349087021E00D2C03D103201049087006
:1044E0000DE02988481C288074542888B0F5FA7F8C
:1044F00005DD0220FFF7AAF80020094908700CE04A
:104500000A2C06D1002007490870054908700120CF
:1045100070BD00200249087000BF00BF0020F7E70F
:1045200098030010990300109C03001010B50B486D
:10453000007888B10A480068A0F57A7008490860D8
:1045400008460068002807DC002004490870054977
:1045500008700120FFF77AF810BD000099030010E1
:104560009C0300109803001010B5002401F0A0FB7C
:10457000092818D2DFE800F00705090B0D0F111309
:10458000150000240FE001240DE002240BE00324B9
:1045900009E0042407E0052405E0062403E00724DD
:1045A00001E0082400BF00BF204610BD30B484B035
:1045B0000021DFF880C000916B460191CA1701EB22
:1045C000927222F003021A44C1F107051468455D96
:1045D000491C05EB042414600829EFD100996144BB
:1045E00000910199009A614401910099019B4FEA61
:1045F000F16C01998CEAF2324FEA712181EA737110
:10460000CDE900210021C1F10303491CC254009AE5
:10461000120A00920429F6DB0021C1F10703019A76
:10462000C254019A491C120A01920429F5DB04B014
:1046300030BC7047C59D1C810246002111E00B482B
:1046400050F8310090420AD8084B481C53F830000B
:10465000904204D9184600EBC10000797047481C0D
:10466000C1B21529EBD300BFFEE70000180401001A
:10467000FCB505460B463C26B3FBF6F706FB1736A2
:104680008DF800604FF46166B3FBF6F706FB173652
:104690003C27B6FBF7F6F6B28DF80160474EB3FB48
:1046A000F6F706FB17364FF46167B6FBF7F6F6B27E
:1046B0008DF80260424EB3FBF6F640F2B27707EB9C
:1046C0008606B6B2ADF806603D4EB3FBF6F706FBC4
:1046D00017323C4EB2422AD33B4EB24227D2BDF8EB
:1046E0000660B61CB6B2ADF80660364E961B334F68
:1046F000B6FBF7F6761CB1B2002015E0334E36F863
:1047000010608E420EDB461CF6B28DF80460002865
:1047100006DD461E2D4F37F816608E1BB4B200E042
:104720000C4603E0461CF0B20C28E7DB3EE0254EC9
:10473000B24213D27610B2FBF6F6BDF806703E44D4
:10474000B6B2ADF80660224EB2FBF6F706FB1726AE
:104750001A4FB6FBF7F6761CB1B20CE0BDF8066056
:10476000F61CB6B2ADF80660174E961B134FB6FB9B
:10477000F7F6761CB1B2002015E0164E36F8106040
:104780008E420EDB461CF6B28DF80460002806DD72
:10479000461E104F37F816608E1BB4B200E00C4670
:1047A00003E0461CF0B20C28E7DB00BFE6B28DF850
:1047B0000360009E2E60019E6E60FCBD8051010072
:1047C000801F86070067C20300ECA4059803010060
:1047D0008033E101800301002DE9F04107460D46D9
:1047E00014461E4623462A4600215220FFF786FD26
:1047F00018B134600020BDE8F0814FF0FF30FAE7D7
:104800002DE9F04107460D4614461E4623462A462A
:1048100007215220FFF780FD18B134600020BDE869
:10482000F0814FF0FF30FAE7302805DB392803DC50
:10483000A0F13001C8B210E0412805DB462803DCB6
:10484000A0F13701C8B208E0612805DB662803DC67
:10485000A0F15701C8B200E0FF20704710B5044630
:1048600014B900F0ABF801E000F0A0F800F015F981
:1048700000F08CF800F011F900F090F800F00DF95C
:1048800010BD2DE9F04780460F4615469946002495
:1048900000F0C7F8404600F0A1F8064616B900201F
:1048A000BDE8F087384600F099F806460EB90020BA
:1048B000F6E700F0B6F808F10101C8B200F08EF892
:1048C00006460EB90020EBE7002406E000F03AF8B7
:1048D00028550020FFF7C2FF641CA9F10100A04287
:1048E000F4DC00F02FF828550120FFF7B7FF00F0A7
:1048F000AAF80120D4E72DE9F04781460E46174675
:10490000984600F08EF8484600F068F8054615B95C
:104910000020BDE8F087304600F060F805460DB98C
:104920000020F6E7002407E0385D00F057F8054660
:104930000DB90020EDE7641C4445F5DB00F083F879
:104940000120E6E770B50825002400F02FF812E0FA
:1049500000F0A3F800F022F800F09FF800F016F83D
:1049600000F09BF86006040E00F030F808B1601CFF
:10497000C4B200F092F82800A5F10101CDB2E7D150
:1049800000F00CF800F089F8204670BD4FF0807000
:104990000149086070470000900001404FF08070AE
:1049A0000149086070470000980001404FF0007016
:1049B0000149086070470000900001404FF000700E
:1049C00001490860704700009800014002480068F3
:1049D000C0F34060704700008000014070B505469C
:1049E000002413E005FA04F000F0800010B1FFF796
:1049F000DDFF01E0FFF7E2FF00F04FF8FFF7C6FF31
:104A000000F04BF8FFF7CAFF601CC4B2082CE9DBCA
:104A100000F043F800F025F8064600F03EF8304676
:104A200070BD10B5FFF7C2FF00F037F8FFF7AEFF1B
:104A300000F033F8FFF7C2FF00F02FF8FFF7AEFFEA
:104A400000F02BF810BD10B5FFF7B8FF00F025F807
:104A5000FFF79CFF00F021F8FFF7A8FF00F01DF81A
:104A600010BD10B5FFF79AFF00F017F8FFF79EFF93
:104A700000F013F8FFF78AFF00F00FF8FFF7A6FF2A
:104A800028B1FFF78BFF00F008F8002010BDFFF7FA
:104A900085FF00F002F80120F8E7322001E0411E16
:104AA000C8B20028FBD17047014608467047000095
:104AB00010B5002401F0CAF808B9002010BD01F0BB
:104AC00013F908B1012405E00348007808B1022475
:104AD00000E000242046F1E7270C001000B5BDB02F
:104AE0007E48007805287CD2DFE800F0033F5F9124
:104AF000950007F02BFFF02279496846FBF7A1FCEF
:104B000077480C380EC8774801F010FF764809F056
:104B10006FFB012007F0D4F9724991F8540001F0BD
:104B200010F87249724807F036F97248FFF77AF9BF
:104B30006C4991F8480001F037FC6A49086801F0B7
:104B400081FA6849096C09B1012100E00021084699
:104B500001F082FA634890F8440067490870FFF753
:104B600071F901205D4908705AE05E48C06C68B177
:104B700062A009F0CDFE002064490870594A243231
:104B800002F110015B4801F045FA0AE0554800F1D6
:104B90001403021D0168002001F046FA01205B4960
:104BA000087002204D4908703AE05848007850B328
:104BB00057A009F097FB5B48007820B100205949C5
:104BC000087001F01EFA4748006D01280ED100233D
:104BD000554802785549012001F004FA10B101202E
:104BE00001E019E00020494908700CE000234E481C
:104BF00002784E49184601F0F5F908B1012000E0AD
:104C000000204249087003203449087008E004205D
:104C10003249087004E003E000203049087000BF0A
:104C200000BF04F01BF940B14148007840B905F0DD
:104C3000A7F801203E49087002E000203C490870B6
:104C400004F014F940B13A48407840B905F038FA18
:104C500001203749487002E000203549487004F0CF
:104C60000DF940B13248807840B905F0DDFA0120F5
:104C70002F49887002E000202D49887004F006F961
:104C800040B12B48C07840B905F076FB0120284997
:104C9000C87002E000202649C87004F0FFF840B157
:104CA0002348007940B905F09FFB01202049087195
:104CB00002E000201E49087104F0F8F840B11C48D9
:104CC000407940B905F0A6FB01201949487102E07E
:104CD0000020174948713DB000BD000038020010A7
:104CE000B4030010A404001099E10000BD8000008E
:104CF000081D001028020010C10E00100D0A2D2002
:104D00004F5441412D5472790D0A000039020010B0
:104D1000333233323332333233323332333233326B
:104D20000D0A00003A020010260C0010260B00109D
:104D300050020010F7B50446002600250027602C1D
:104D400001DB0320FEBD4148007800F0010038B1CE
:104D50003E48007800F02000202801D00120F1E733
:104D60009DF8080040F303009DF90810B0EB211FE7
:104D700010DC9DF8081041F303000F22002107F01A
:104D8000F3F938B19DF9081008110F22002107F03E
:104D9000EBF900B90126032C16DA2D4951F834102D
:104DA0000198884200D001259DF8080040F30300D7
:104DB000002800DD01269DF9081008110F220521A9
:104DC00007F0D2F900B90126224A0198116A8847F2
:104DD000012804D1019810B10DB9002700E0012588
:104DE000012E03D1012D01D10620ABE7012E01D107
:104DF0000520A7E7012D01D10420A3E7144800EB0B
:104E0000C400DDE9011206C00020114901EBC40114
:104E10004871E21704EB127212110F4B33F8122093
:104E20002146E31704EB13731B11A4EB031C0123AE
:104E300003FA0CF31A432046E31704EB13731B1118
:104E4000DFF814C02CF8132000207BE7F4090010D1
:104E5000C8060010D00401003C2B001010B5044619
:104E60001248007800F0010038B11048007800F0D6
:104E70002000202801D0012010BD032C01DA0320DE
:104E8000FAE700200A4901EBC4014871084901EB27
:104E9000C4010871064941F8340006492046FFF76D
:104EA0000DFA08B90320E7E70020E5E7F409001050
:104EB000C80600103C2B00102DE9F04707460E46AF
:104EC00090461C46DDE9095ADDF820901C4880F820
:104ED000059001468C71200AC871200C0872200EC2
:104EE00048728D72280AC872280C0873280E4873FD
:104EF000CE731448FCF7ECFF41461248FCF7F8FF6C
:104F000010220F490F48FCF7FDFFF2B239460D4859
:104F1000FCF7F8FF0B490C48FCF705FF0A48C0787E
:104F200000060949897840EA01400749497840EA82
:104F30000120054909780843CAF80000BDE8F08758
:104F4000A00A0010482D0010342C00100EB51520BA
:104F50008DF80000684600F0CBFA01980EBD0EB542
:104F600014208DF80000684600F0C2FA01980EBDCA
:104F700010B5044609480A4908600A4848600A48CA
:104F800088600A492068086060684860084960686D
:104F90000860034800F038F810BD0000016A000006
:104FA000282C00105D6A00000D6C0000980A0010AB
:104FB000940A0010FEB507460C4615461E4603200F
:104FC0008DF800000197684600F036FB04208DF84C
:104FD00000000194684600F02FFB05208DF80000CA
:104FE0000195684600F028FB06208DF80000019628
:104FF000684600F021FB01208DF800008DF80400C8
:10500000684600F019FBFEBD70B504460D460CB9AC
:10501000032070BD206818B1606808B1A06808B9A5
:105020000320F6E7424804604248056000204249F8
:105030000870424908700120414908600020414938
:1050400008604149086041490870012040490870E2
:105050000020404908704049086007203F49088007
:1050600001203F49087000203E4908703E49087001
:1050700001203E49087000203D4908703D490870F4
:1050800001203D49088000213C4A116051603C4AA2
:10509000116051603B4908703B483C4908603C48FE
:1050A0003C49086040003C4908603C483C49086075
:1050B0003C483D4908603D493D4806F06CFE3D498D
:1050C0003B4806F019FF3C493C4806F064FE3C4969
:1050D0003C4806F060FE3C493C4806F05CFE3C491A
:1050E0003C4806F058FE3C483C4908603C48886013
:1050F0003C4808613C4848603C48C8603C480168FE
:10510000364888473A494869804706460AF068F8B1
:105110006020384908700120374908700846007837
:1051200006F0E8FC3249C86A8047002071E70000B9
:10513000F8090010FC090010290A001030060010C0
:10514000380600103C06001044060010320600101D
:105150004106001042060010F40900103C2B00101C
:10516000D1090010D2090010D3090010D409001091
:10517000D5090010D6090010D8090010E009001068
:10518000E8090010F0090010C0C62D00180A001030
:1051900040420F00000A0010040A0010404B4C006F
:1051A000080A0010808D5B000C0A0010096E0000D8
:1051B000482B001080841E0099800000782B00107E
:1051C000797E00008C2B00100D800000A02B0010B9
:1051D000D16C0000B42B0010317C00005C2B00105F
:1051E000D5700000517B0000257E0000C17B0000CF
:1051F000D0040100F1090010310600102DE9F04142
:1052000004460D4616461F461048FCF761FE31461F
:105210000E48FCF76DFEEAB221460C48FCF772FE20
:105220000A490B48FCF77FFD0948C0780006084989
:10523000897840EA01400649497840EA012004495A
:10524000097808433860BDE8F0810000482D00105F
:10525000342C00102DE9FF4184B005460E461C4653
:105260000E9F0DF11808F02200211E4809F068FD7C
:105270001C4A1021284608F05BF9102200216846DC
:1052800009F05EFD01208DF80000062231460DF187
:10529000010009F03BFD022241460DF1070009F033
:1052A00035FD104A2146684608F015F91022002104
:1052B000684609F045FD02208DF8000006223146BF
:1052C0000DF1010009F022FD022241460DF1070017
:1052D00009F01CFD034A3946684608F0FCF808B09E
:1052E000BDE8F081542C00102DE9F04107460D4631
:1052F00016461C46F02200210B4809F021FD0A4AFF
:105300001021304608F014F9074A2146384608F0C3
:10531000E2F8102D06DB044A04F1100107F1100039
:1053200008F0D9F8BDE8F081542C00102DE9FF41B8
:1053300005460E46174600208DF80000029603979A
:105340000195684600F058FA0B2814D2DFE800F007
:1053500006080F131313130A0C0D110000240CE0A0
:1053600001240AE0022408E000BF032405E004242D
:1053700003E0062401E0012400BF00BF204604B082
:10538000BDE8F0811FB501208DF80000684600F0EF
:1053900033FA10B1022804D101E0002403E0012413
:1053A00001E0012400BF00BF204604B010BD000092
:1053B0002DE9F84F04464FF002084FF000094FF076
:1053C000000A14B90320BDE8F88F4148007800F0C6
:1053D000010028B93E48007800F01000102801D1E3
:1053E0000120F0E70020009018220021394809F040
:1053F000A7FC012037494870207820B1012814D03B
:10540000032837D126E04FF0010A01203249087005
:105410009DF8000020F0E0004030009094F80490E7
:10542000A668A78994F90E5025E04FF0010A0120E3
:105430002A490870E07B284908709DF8000020F098
:10544000E0008030009094F80490A668A78994F951
:105450000E5010E04FF0010A01201F4908709DF81E
:10546000000020F0E000E03000906668278994F9A1
:105470000A5000E000BF00BFBAF1010F25D1184863
:10548000007850B90F220021284606F06DFE10B1B9
:105490001448057001E0032095E73B463246494633
:1054A000684606F04BF88046B8F1000F0AD1207824
:1054B000084908700C48007820F00100401C0A4997
:1054C000087002E000200949087040467BE70000B0
:1054D000F4090010E02B00101C0A00101D0A001037
:1054E00043060010D2090010290A001048060010D7
:1054F0000146002209B9032070470878172868D2AE
:10550000DFE800F00C1014181C2023262A2E313658
:10551000393D4145494D51565B5F63002F48007846
:10552000087158E02E480078087154E02D48007842
:10553000087150E02C48006848604CE02B48006837
:10554000486048E02A48486045E02A48486042E010
:105550002948007808713EE02848007808713AE050
:105560002748486037E0274B09CBC1E9010332E007
:10557000254848602FE02548007808712BE0244832
:105580000068486027E023480068486023E022481C
:10559000006848601FE02148006848601BE0204820
:1055A0000068486017E01F4890F90000087112E099
:1055B0001D4890F9000008710DE01C480068486023
:1055C00009E01B480068486005E01A480068486028
:1055D00001E0022200BF00BF10468DE73006001038
:1055E0004206001043060010240600102806001092
:1055F000102800102028001031060010320600107C
:10560000C8060010C80900103C2B0010D409001077
:10561000180A0010000A0010040A0010080A0010FE
:105620000C0A0010D2090010D10900103806001031
:105630003C0600102C06001070B5044600250CB97D
:10564000032070BD5648007800F0010008B1012029
:10565000F7E7207814286ED2DFE800F00A262A2E19
:105660003236404A4E9C5257616E72767A7E828FF5
:1056700020794C4908700846007820B1012806D0EE
:1056800002280FD104E04849C86A80470AE009E0CF
:1056900000204649087046480078012801D102F0F0
:1056A000B5FC00BF00BF77E020794249087073E085
:1056B0002079414908706FE04049606808606BE0FC
:1056C0003F496068086067E0606828B110223D4883
:1056D000616809F01BFB00E003255DE0606828B10C
:1056E00010223948616809F011FB00E0032553E0FE
:1056F000207906F0FFF94FE02079344908704BE03B
:105700003348D4E9011206C046E0606828B102229D
:105710003048616809F0FAFA00E003253CE020799E
:10572000012806DB20790F2803DC20792A4908703C
:1057300000E0032530E02DE02849606808602BE098
:1057400027496068086027E026496068086023E010
:105750002549606808601FE02449606808601BE014
:1057600094F904000F22002106F0FEFC18B1207904
:105770001F49087000E003250EE094F9040005229B
:10578000002106F0F1FC18B120791A49087000E0F8
:10579000032501E0022500BF00BF284651E70000B5
:1057A000F409001030060010D00401004806001073
:1057B000C00E001042060010430600102406001020
:1057C00028060010102800102028001032060010B3
:1057D000C80900103C2B0010D4090010180A001052
:1057E000000A0010040A0010080A00100C0A001039
:1057F000D2090010D109001038B5044602250CB9B1
:10580000032038BD3348007800F0010008B10120C2
:10581000F7E718220021304809F092FA01202E49BA
:105820004870207810B1012845D133E0294800782C
:1058300000F01000102800D10125207826490870BA
:10584000606818B1A06808B1E06808B90320D8E71B
:105850002248007820F00400001D204908702049EB
:10586000606808601F49A06808601F49E068086018
:10587000002000909DF8000020F0E0000090002043
:105880001A49087000231A461946684605F056FE64
:10589000054611E01148007820F00400001D0F4972
:1058A000087020780C490870002211460220FEF78B
:1058B000BDF9054600E000BF00BF45B100200C491E
:1058C00008700648007820F0040004490870284653
:1058D00097E70000F4090010F82B0010290A0010C7
:1058E00014060010180600101C06001042060010D6
:1058F000480600102DE9FE4F04460D4616461F4689
:10590000DDE90D9ADDF830803B46324629462046D7
:105910008DE8000700F002F8BDE8FE8F2DE9F05F8A
:1059200081460D4693461E46DDF82C8000274FF039
:10593000010AF02200212E4809F002FA2C4A102117
:10594000584607F0F5FD2B490A9848718E71300AC8
:10595000C871300C0872300E487281F80A804FEA24
:105960001820C8724FEA184008734FEA186048734D
:1059700020E0204981F80FA00AF101001FFA80FA07
:105980001B4A1D491B4807F0A6FD00240AE03819F0
:1059900019F800001849095D48403A190C998854D3
:1059A000601C84B2102CF2DBA5F1100085B207F167
:1059B0001000C7B2102DDCDA002D16DD0D4981F87C
:1059C0000FA00B4A0C490B4807F085FD00240AE0A4
:1059D000381919F800000849095D48403A190C992E
:1059E0008854601C84B2AC42F2DBBDE8F09F00003A
:1059F000542C0010B00A0010442C00102DE9F04186
:105A000088B005460E4617469846182200211C48C5
:105A100009F096F912208DF8140005A8FFF768FD2B
:105A200001208DF804000396ADF810708DF8085031
:105A30008DF813809DF818108DF8121001A8FFF74B
:105A4000B7FC0B2814D2DFE800F006080F1313137D
:105A5000130A0C0D110000240CE001240AE00224BA
:105A600008E000BF032405E0042403E0062401E06D
:105A7000012400BF00BF204608B0BDE8F08100004F
:105A8000102C0010F0B587B005460E4617461822B8
:105A900000211A4809F054F912208DF8100004A8CA
:105AA000FFF726FD00208DF800000296ADF80C707F
:105AB0008DF804509DF814108DF80E106846FFF70D
:105AC00077FC0B2814D2DFE800F006080F1313133D
:105AD000130A0C0D110000240CE001240AE002243A
